{
  "contractName": "BackingContract",
  "abi": [
    {
      "inputs": [
        {
          "internalType": "address payable",
          "name": "backedTokenAddress",
          "type": "address"
        }
      ],
      "payable": false,
      "stateMutability": "nonpayable",
      "type": "constructor"
    },
    {
      "payable": true,
      "stateMutability": "payable",
      "type": "fallback"
    },
    {
      "constant": true,
      "inputs": [],
      "name": "backedToken",
      "outputs": [
        {
          "internalType": "contract BackedToken",
          "name": "",
          "type": "address"
        }
      ],
      "payable": false,
      "stateMutability": "view",
      "type": "function"
    },
    {
      "constant": true,
      "inputs": [],
      "name": "balanceForBacking",
      "outputs": [
        {
          "internalType": "uint256",
          "name": "",
          "type": "uint256"
        }
      ],
      "payable": false,
      "stateMutability": "view",
      "type": "function"
    },
    {
      "constant": false,
      "inputs": [],
      "name": "deposit",
      "outputs": [],
      "payable": true,
      "stateMutability": "payable",
      "type": "function"
    },
    {
      "constant": false,
      "inputs": [
        {
          "internalType": "uint256",
          "name": "ethAmount",
          "type": "uint256"
        }
      ],
      "name": "withdraw",
      "outputs": [],
      "payable": false,
      "stateMutability": "nonpayable",
      "type": "function"
    }
  ],
  "bytecode": "0x608060405234801561001057600080fd5b5060405161079b38038061079b8339818101604052602081101561003357600080fd5b8101908080519060200190929190505050806000806101000a81548173ffffffffffffffffffffffffffffffffffffffff021916908373ffffffffffffffffffffffffffffffffffffffff1602179055506000809054906101000a900473ffffffffffffffffffffffffffffffffffffffff1673ffffffffffffffffffffffffffffffffffffffff1663d63fedc5306040518263ffffffff1660e01b8152600401808273ffffffffffffffffffffffffffffffffffffffff1673ffffffffffffffffffffffffffffffffffffffff168152602001915050600060405180830381600087803b15801561012457600080fd5b505af1158015610138573d6000803e3d6000fd5b505050505061064f8061014c6000396000f3fe60806040526004361061003f5760003560e01c80632e1a7d4d1461005c5780638e6b523e146100975780639a26c0c4146100ee578063d0e30db014610119575b6100543460015461012390919063ffffffff16565b600181905550005b34801561006857600080fd5b506100956004803603602081101561007f57600080fd5b81019080803590602001909291905050506101ab565b005b3480156100a357600080fd5b506100ac6103a4565b604051808273ffffffffffffffffffffffffffffffffffffffff1673ffffffffffffffffffffffffffffffffffffffff16815260200191505060405180910390f35b3480156100fa57600080fd5b506101036103c9565b6040518082815260200191505060405180910390f35b6101216103cf565b005b6000808284019050838110156101a1576040517f08c379a000000000000000000000000000000000000000000000000000000000815260040180806020018281038252601b8152602001807f536166654d6174683a206164646974696f6e206f766572666c6f77000000000081525060200191505060405180910390fd5b8091505092915050565b6000809054906101000a900473ffffffffffffffffffffffffffffffffffffffff1673ffffffffffffffffffffffffffffffffffffffff163373ffffffffffffffffffffffffffffffffffffffff1614610250576040517f08c379a000000000000000000000000000000000000000000000000000000000815260040180806020018281038252602f8152602001806105ca602f913960400191505060405180910390fd5b478111156102a9576040517f08c379a00000000000000000000000000000000000000000000000000000000081526004018080602001828103825260228152602001806105f96022913960400191505060405180910390fd5b600154811115610304576040517f08c379a000000000000000000000000000000000000000000000000000000000815260040180806020018281038252602e81526020018061059c602e913960400191505060405180910390fd5b6103198160015461049190919063ffffffff16565b6001819055506000809054906101000a900473ffffffffffffffffffffffffffffffffffffffff1673ffffffffffffffffffffffffffffffffffffffff1663d0e30db0826040518263ffffffff1660e01b81526004016000604051808303818588803b15801561038857600080fd5b505af115801561039c573d6000803e3d6000fd5b505050505050565b6000809054906101000a900473ffffffffffffffffffffffffffffffffffffffff1681565b60015481565b6000809054906101000a900473ffffffffffffffffffffffffffffffffffffffff1673ffffffffffffffffffffffffffffffffffffffff163373ffffffffffffffffffffffffffffffffffffffff1614610474576040517f08c379a000000000000000000000000000000000000000000000000000000000815260040180806020018281038252602f8152602001806105ca602f913960400191505060405180910390fd5b6104893460015461012390919063ffffffff16565b600181905550565b60006104d383836040518060400160405280601e81526020017f536166654d6174683a207375627472616374696f6e206f766572666c6f7700008152506104db565b905092915050565b6000838311158290610588576040517f08c379a00000000000000000000000000000000000000000000000000000000081526004018080602001828103825283818151815260200191508051906020019080838360005b8381101561054d578082015181840152602081019050610532565b50505050905090810190601f16801561057a5780820380516001836020036101000a031916815260200191505b509250505060405180910390fd5b506000838503905080915050939250505056fe43616e206e6f74207769746864726177206d6f7265207468616e2062616c616e636520666f72206261636b696e6743616e206f6e6c792062652063616c6c656420627920746865206261636b656420746f6b656e20636f6e747261637443616e206e6f74207769746864726177206d6f7265207468616e2062616c616e6365a265627a7a72315820015b739a7f5539280c74cbb6cce81b18186635f5c971311f9b5a8d5880bf4d2464736f6c63430005100032",
  "source": "pragma solidity ^0.5.0;\r\n\r\nimport \"./BackedToken.sol\";\r\nimport \"openzeppelin-solidity/contracts/math/SafeMath.sol\";\r\n\r\n/**\r\n * @title BackingContract\r\n * @author Rosco Kalis <roscokalis@gmail.com>\r\n */\r\ncontract BackingContract {\r\n    using SafeMath for uint256;\r\n\r\n    BackedToken public backedToken;\r\n    uint256 public balanceForBacking;\r\n\r\n    modifier onlyBackedToken() {\r\n        require(msg.sender == address(backedToken), \"Can only be called by the backed token contract\");\r\n        _;\r\n    }\r\n\r\n    /**\r\n     * @dev Fallback payable function, adding the new funds to balanceForBacking.\r\n     */\r\n    function() external payable {\r\n        balanceForBacking = balanceForBacking.add(msg.value);\r\n    }\r\n\r\n    /**\r\n     * @notice Sets the backed token and backs it.\r\n     * @param backedTokenAddress The address of the deployed backed token.\r\n     */\r\n    constructor(address payable backedTokenAddress) public {\r\n        backedToken = BackedToken(backedTokenAddress);\r\n        backedToken.back(address(this));\r\n    }\r\n\r\n    /**\r\n     * @notice Allows the backed token to deposit funds into the contract.\r\n     * @dev Funds are added to balanceForBacking as well.\r\n     */\r\n    function deposit() external payable onlyBackedToken {\r\n        balanceForBacking = balanceForBacking.add(msg.value);\r\n    }\r\n\r\n    /**\r\n     * @notice Allows the backed token to withdraw funds from the contract.\r\n     * @dev Funds are removed from balanceForBacking as well.\r\n     * @param ethAmount The amount of eth to withdraw.\r\n     */\r\n    function withdraw(uint256 ethAmount) external onlyBackedToken {\r\n        require(ethAmount <= address(this).balance, \"Can not withdraw more than balance\");\r\n        require(ethAmount <= balanceForBacking, \"Can not withdraw more than balance for backing\");\r\n        balanceForBacking = balanceForBacking.sub(ethAmount);\r\n        backedToken.deposit.value(ethAmount)();\r\n    }\r\n}\r\n",
  "sourcePath": "D:\\MyData\\mywork\\Tasks\\angular\\2022-2-19\\ethroulette\\contracts\\BackingContract.sol",
  "compiler": {
    "name": "solc",
    "version": "0.5.16+commit.9c3226ce.Emscripten.clang"
  },
  "schemaVersion": "3.4.5",
  "updatedAt": "2022-02-27T15:50:52.610Z",
  "devdoc": {
    "author": "Rosco Kalis <roscokalis@gmail.com>",
    "methods": {
      "constructor": {
        "params": {
          "backedTokenAddress": "The address of the deployed backed token."
        }
      },
      "deposit()": {
        "details": "Funds are added to balanceForBacking as well."
      },
      "withdraw(uint256)": {
        "details": "Funds are removed from balanceForBacking as well.",
        "params": {
          "ethAmount": "The amount of eth to withdraw."
        }
      }
    },
    "title": "BackingContract"
  },
  "userdoc": {
    "methods": {
      "constructor": "Sets the backed token and backs it.",
      "deposit()": {
        "notice": "Allows the backed token to deposit funds into the contract."
      },
      "withdraw(uint256)": {
        "notice": "Allows the backed token to withdraw funds from the contract."
      }
    }
  }
}