{
  "contractName": "BackedToken",
  "abi": [
    {
      "anonymous": false,
      "inputs": [
        {
          "indexed": true,
          "internalType": "address",
          "name": "owner",
          "type": "address"
        },
        {
          "indexed": true,
          "internalType": "address",
          "name": "spender",
          "type": "address"
        },
        {
          "indexed": false,
          "internalType": "uint256",
          "name": "value",
          "type": "uint256"
        }
      ],
      "name": "Approval",
      "type": "event"
    },
    {
      "anonymous": false,
      "inputs": [
        {
          "indexed": true,
          "internalType": "address",
          "name": "buyer",
          "type": "address"
        },
        {
          "indexed": false,
          "internalType": "uint256",
          "name": "ethAmount",
          "type": "uint256"
        },
        {
          "indexed": false,
          "internalType": "uint256",
          "name": "tokenPrice",
          "type": "uint256"
        },
        {
          "indexed": false,
          "internalType": "uint256",
          "name": "tokenAmount",
          "type": "uint256"
        }
      ],
      "name": "Buy",
      "type": "event"
    },
    {
      "anonymous": false,
      "inputs": [
        {
          "indexed": true,
          "internalType": "address",
          "name": "seller",
          "type": "address"
        },
        {
          "indexed": false,
          "internalType": "uint256",
          "name": "ethAmount",
          "type": "uint256"
        },
        {
          "indexed": false,
          "internalType": "uint256",
          "name": "tokenPrice",
          "type": "uint256"
        },
        {
          "indexed": false,
          "internalType": "uint256",
          "name": "tokenAmount",
          "type": "uint256"
        }
      ],
      "name": "Sell",
      "type": "event"
    },
    {
      "anonymous": false,
      "inputs": [
        {
          "indexed": true,
          "internalType": "address",
          "name": "from",
          "type": "address"
        },
        {
          "indexed": true,
          "internalType": "address",
          "name": "to",
          "type": "address"
        },
        {
          "indexed": false,
          "internalType": "uint256",
          "name": "value",
          "type": "uint256"
        }
      ],
      "name": "Transfer",
      "type": "event"
    },
    {
      "payable": true,
      "stateMutability": "payable",
      "type": "fallback"
    },
    {
      "constant": true,
      "inputs": [
        {
          "internalType": "address",
          "name": "owner",
          "type": "address"
        },
        {
          "internalType": "address",
          "name": "spender",
          "type": "address"
        }
      ],
      "name": "allowance",
      "outputs": [
        {
          "internalType": "uint256",
          "name": "",
          "type": "uint256"
        }
      ],
      "payable": false,
      "stateMutability": "view",
      "type": "function"
    },
    {
      "constant": false,
      "inputs": [
        {
          "internalType": "address",
          "name": "spender",
          "type": "address"
        },
        {
          "internalType": "uint256",
          "name": "amount",
          "type": "uint256"
        }
      ],
      "name": "approve",
      "outputs": [
        {
          "internalType": "bool",
          "name": "",
          "type": "bool"
        }
      ],
      "payable": false,
      "stateMutability": "nonpayable",
      "type": "function"
    },
    {
      "constant": true,
      "inputs": [],
      "name": "backingContract",
      "outputs": [
        {
          "internalType": "contract BackingContract",
          "name": "",
          "type": "address"
        }
      ],
      "payable": false,
      "stateMutability": "view",
      "type": "function"
    },
    {
      "constant": true,
      "inputs": [
        {
          "internalType": "address",
          "name": "account",
          "type": "address"
        }
      ],
      "name": "balanceOf",
      "outputs": [
        {
          "internalType": "uint256",
          "name": "",
          "type": "uint256"
        }
      ],
      "payable": false,
      "stateMutability": "view",
      "type": "function"
    },
    {
      "constant": false,
      "inputs": [
        {
          "internalType": "address",
          "name": "spender",
          "type": "address"
        },
        {
          "internalType": "uint256",
          "name": "subtractedValue",
          "type": "uint256"
        }
      ],
      "name": "decreaseAllowance",
      "outputs": [
        {
          "internalType": "bool",
          "name": "",
          "type": "bool"
        }
      ],
      "payable": false,
      "stateMutability": "nonpayable",
      "type": "function"
    },
    {
      "constant": false,
      "inputs": [
        {
          "internalType": "address",
          "name": "spender",
          "type": "address"
        },
        {
          "internalType": "uint256",
          "name": "addedValue",
          "type": "uint256"
        }
      ],
      "name": "increaseAllowance",
      "outputs": [
        {
          "internalType": "bool",
          "name": "",
          "type": "bool"
        }
      ],
      "payable": false,
      "stateMutability": "nonpayable",
      "type": "function"
    },
    {
      "constant": true,
      "inputs": [],
      "name": "totalSupply",
      "outputs": [
        {
          "internalType": "uint256",
          "name": "",
          "type": "uint256"
        }
      ],
      "payable": false,
      "stateMutability": "view",
      "type": "function"
    },
    {
      "constant": false,
      "inputs": [
        {
          "internalType": "address",
          "name": "recipient",
          "type": "address"
        },
        {
          "internalType": "uint256",
          "name": "amount",
          "type": "uint256"
        }
      ],
      "name": "transfer",
      "outputs": [
        {
          "internalType": "bool",
          "name": "",
          "type": "bool"
        }
      ],
      "payable": false,
      "stateMutability": "nonpayable",
      "type": "function"
    },
    {
      "constant": false,
      "inputs": [
        {
          "internalType": "address",
          "name": "sender",
          "type": "address"
        },
        {
          "internalType": "address",
          "name": "recipient",
          "type": "address"
        },
        {
          "internalType": "uint256",
          "name": "amount",
          "type": "uint256"
        }
      ],
      "name": "transferFrom",
      "outputs": [
        {
          "internalType": "bool",
          "name": "",
          "type": "bool"
        }
      ],
      "payable": false,
      "stateMutability": "nonpayable",
      "type": "function"
    },
    {
      "constant": false,
      "inputs": [],
      "name": "deposit",
      "outputs": [],
      "payable": true,
      "stateMutability": "payable",
      "type": "function"
    },
    {
      "constant": false,
      "inputs": [
        {
          "internalType": "address payable",
          "name": "backingContractAddress",
          "type": "address"
        }
      ],
      "name": "back",
      "outputs": [],
      "payable": false,
      "stateMutability": "nonpayable",
      "type": "function"
    },
    {
      "constant": false,
      "inputs": [],
      "name": "buy",
      "outputs": [],
      "payable": true,
      "stateMutability": "payable",
      "type": "function"
    },
    {
      "constant": false,
      "inputs": [
        {
          "internalType": "uint256",
          "name": "tokenAmount",
          "type": "uint256"
        }
      ],
      "name": "sell",
      "outputs": [],
      "payable": false,
      "stateMutability": "nonpayable",
      "type": "function"
    },
    {
      "constant": true,
      "inputs": [],
      "name": "tokenPrice",
      "outputs": [
        {
          "internalType": "uint256",
          "name": "",
          "type": "uint256"
        }
      ],
      "payable": false,
      "stateMutability": "view",
      "type": "function"
    },
    {
      "constant": true,
      "inputs": [
        {
          "internalType": "uint256",
          "name": "ethAmount",
          "type": "uint256"
        }
      ],
      "name": "convertEthToToken",
      "outputs": [
        {
          "internalType": "uint256",
          "name": "",
          "type": "uint256"
        }
      ],
      "payable": false,
      "stateMutability": "view",
      "type": "function"
    },
    {
      "constant": true,
      "inputs": [
        {
          "internalType": "uint256",
          "name": "tokenAmount",
          "type": "uint256"
        }
      ],
      "name": "convertTokenToEth",
      "outputs": [
        {
          "internalType": "uint256",
          "name": "",
          "type": "uint256"
        }
      ],
      "payable": false,
      "stateMutability": "view",
      "type": "function"
    }
  ],
  "bytecode": "0x6080604052612356806100136000396000f3fe6080604052600436106100f35760003560e01c8063a457c2d71161008a578063d63fedc511610059578063d63fedc5146105f4578063dd62ed3e14610645578063e0d380e5146106ca578063e4849b3214610719576100f3565b8063a457c2d7146104fa578063a6f2ae3a1461056d578063a9059cbb14610577578063d0e30db0146105ea576100f3565b806339fc7211116100c657806339fc7211146103c4578063664a53fd1461041357806370a082311461046a5780637ff9b596146104cf576100f3565b8063095ea7b31461022057806318160ddd1461029357806323b872dd146102be5780633950935114610351575b600073ffffffffffffffffffffffffffffffffffffffff16600360009054906101000a900473ffffffffffffffffffffffffffffffffffffffff1673ffffffffffffffffffffffffffffffffffffffff16141561019b576040517f08c379a000000000000000000000000000000000000000000000000000000000815260040180806020018281038252602c81526020018061213a602c913960400191505060405180910390fd5b600360009054906101000a900473ffffffffffffffffffffffffffffffffffffffff1673ffffffffffffffffffffffffffffffffffffffff1663d0e30db0346040518263ffffffff1660e01b81526004016000604051808303818588803b15801561020557600080fd5b505af1158015610219573d6000803e3d6000fd5b5050505050005b34801561022c57600080fd5b506102796004803603604081101561024357600080fd5b81019080803573ffffffffffffffffffffffffffffffffffffffff16906020019092919080359060200190929190505050610754565b604051808215151515815260200191505060405180910390f35b34801561029f57600080fd5b506102a8610772565b6040518082815260200191505060405180910390f35b3480156102ca57600080fd5b50610337600480360360608110156102e157600080fd5b81019080803573ffffffffffffffffffffffffffffffffffffffff169060200190929190803573ffffffffffffffffffffffffffffffffffffffff1690602001909291908035906020019092919050505061077c565b604051808215151515815260200191505060405180910390f35b34801561035d57600080fd5b506103aa6004803603604081101561037457600080fd5b81019080803573ffffffffffffffffffffffffffffffffffffffff16906020019092919080359060200190929190505050610855565b604051808215151515815260200191505060405180910390f35b3480156103d057600080fd5b506103fd600480360360208110156103e757600080fd5b8101908080359060200190929190505050610908565b6040518082815260200191505060405180910390f35b34801561041f57600080fd5b506104286109ec565b604051808273ffffffffffffffffffffffffffffffffffffffff1673ffffffffffffffffffffffffffffffffffffffff16815260200191505060405180910390f35b34801561047657600080fd5b506104b96004803603602081101561048d57600080fd5b81019080803573ffffffffffffffffffffffffffffffffffffffff169060200190929190505050610a12565b6040518082815260200191505060405180910390f35b3480156104db57600080fd5b506104e4610a5a565b6040518082815260200191505060405180910390f35b34801561050657600080fd5b506105536004803603604081101561051d57600080fd5b81019080803573ffffffffffffffffffffffffffffffffffffffff16906020019092919080359060200190929190505050610cac565b604051808215151515815260200191505060405180910390f35b610575610d79565b005b34801561058357600080fd5b506105d06004803603604081101561059a57600080fd5b81019080803573ffffffffffffffffffffffffffffffffffffffff16906020019092919080359060200190929190505050610f9f565b604051808215151515815260200191505060405180910390f35b6105f2610fbd565b005b34801561060057600080fd5b506106436004803603602081101561061757600080fd5b81019080803573ffffffffffffffffffffffffffffffffffffffff16906020019092919050505061110d565b005b34801561065157600080fd5b506106b46004803603604081101561066857600080fd5b81019080803573ffffffffffffffffffffffffffffffffffffffff169060200190929190803573ffffffffffffffffffffffffffffffffffffffff1690602001909291905050506111f8565b6040518082815260200191505060405180910390f35b3480156106d657600080fd5b50610703600480360360208110156106ed57600080fd5b810190808035906020019092919050505061127f565b6040518082815260200191505060405180910390f35b34801561072557600080fd5b506107526004803603602081101561073c57600080fd5b8101908080359060200190929190505050611363565b005b60006107686107616115c6565b84846115ce565b6001905092915050565b6000600254905090565b60006107898484846117c5565b61084a846107956115c6565b6108458560405180606001604052806028815260200161226b60289139600160008b73ffffffffffffffffffffffffffffffffffffffff1673ffffffffffffffffffffffffffffffffffffffff16815260200190815260200160002060006107fb6115c6565b73ffffffffffffffffffffffffffffffffffffffff1673ffffffffffffffffffffffffffffffffffffffff16815260200190815260200160002054611a7b9092919063ffffffff16565b6115ce565b600190509392505050565b60006108fe6108626115c6565b846108f985600160006108736115c6565b73ffffffffffffffffffffffffffffffffffffffff1673ffffffffffffffffffffffffffffffffffffffff16815260200190815260200160002060008973ffffffffffffffffffffffffffffffffffffffff1673ffffffffffffffffffffffffffffffffffffffff16815260200190815260200160002054611b3b90919063ffffffff16565b6115ce565b6001905092915050565b60008073ffffffffffffffffffffffffffffffffffffffff16600360009054906101000a900473ffffffffffffffffffffffffffffffffffffffff1673ffffffffffffffffffffffffffffffffffffffff1614156109b1576040517f08c379a000000000000000000000000000000000000000000000000000000000815260040180806020018281038252602c81526020018061213a602c913960400191505060405180910390fd5b6109e5670de0b6b3a76400006109d7846109c9610a5a565b611bc390919063ffffffff16565b611c4990919063ffffffff16565b9050919050565b600360009054906101000a900473ffffffffffffffffffffffffffffffffffffffff1681565b60008060008373ffffffffffffffffffffffffffffffffffffffff1673ffffffffffffffffffffffffffffffffffffffff168152602001908152602001600020549050919050565b60008073ffffffffffffffffffffffffffffffffffffffff16600360009054906101000a900473ffffffffffffffffffffffffffffffffffffffff1673ffffffffffffffffffffffffffffffffffffffff161415610b03576040517f08c379a000000000000000000000000000000000000000000000000000000000815260040180806020018281038252602c81526020018061213a602c913960400191505060405180910390fd5b6000610b0d610772565b1480610bbb57506000600360009054906101000a900473ffffffffffffffffffffffffffffffffffffffff1673ffffffffffffffffffffffffffffffffffffffff16639a26c0c46040518163ffffffff1660e01b815260040160206040518083038186803b158015610b7e57600080fd5b505afa158015610b92573d6000803e3d6000fd5b505050506040513d6020811015610ba857600080fd5b8101908080519060200190929190505050145b15610bd057670de0b6b3a76400009050610ca9565b610ca6610bdb610772565b610c98670de0b6b3a7640000600360009054906101000a900473ffffffffffffffffffffffffffffffffffffffff1673ffffffffffffffffffffffffffffffffffffffff16639a26c0c46040518163ffffffff1660e01b815260040160206040518083038186803b158015610c4f57600080fd5b505afa158015610c63573d6000803e3d6000fd5b505050506040513d6020811015610c7957600080fd5b8101908080519060200190929190505050611bc390919063ffffffff16565b611c4990919063ffffffff16565b90505b90565b6000610d6f610cb96115c6565b84610d6a856040518060600160405280602581526020016122fd6025913960016000610ce36115c6565b73ffffffffffffffffffffffffffffffffffffffff1673ffffffffffffffffffffffffffffffffffffffff16815260200190815260200160002060008a73ffffffffffffffffffffffffffffffffffffffff1673ffffffffffffffffffffffffffffffffffffffff16815260200190815260200160002054611a7b9092919063ffffffff16565b6115ce565b6001905092915050565b600073ffffffffffffffffffffffffffffffffffffffff16600360009054906101000a900473ffffffffffffffffffffffffffffffffffffffff1673ffffffffffffffffffffffffffffffffffffffff161415610e21576040517f08c379a000000000000000000000000000000000000000000000000000000000815260040180806020018281038252602c81526020018061213a602c913960400191505060405180910390fd5b60003411610e97576040517f08c379a00000000000000000000000000000000000000000000000000000000081526004018080602001828103825260198152602001807f412070757263686173652073686f756c64206265206d6164650000000000000081525060200191505060405180910390fd5b6000610ea23461127f565b90506000610eae610a5a565b9050610eba3383611c93565b600360009054906101000a900473ffffffffffffffffffffffffffffffffffffffff1673ffffffffffffffffffffffffffffffffffffffff1663d0e30db0346040518263ffffffff1660e01b81526004016000604051808303818588803b158015610f2457600080fd5b505af1158015610f38573d6000803e3d6000fd5b50505050503373ffffffffffffffffffffffffffffffffffffffff167fbeae048c6d270d9469f86cf6e8fedda3c60ad770f16c24c9fc131c8e9a09101d34838560405180848152602001838152602001828152602001935050505060405180910390a25050565b6000610fb3610fac6115c6565b84846117c5565b6001905092915050565b600073ffffffffffffffffffffffffffffffffffffffff16600360009054906101000a900473ffffffffffffffffffffffffffffffffffffffff1673ffffffffffffffffffffffffffffffffffffffff161415611065576040517f08c379a000000000000000000000000000000000000000000000000000000000815260040180806020018281038252602c81526020018061213a602c913960400191505060405180910390fd5b600360009054906101000a900473ffffffffffffffffffffffffffffffffffffffff1673ffffffffffffffffffffffffffffffffffffffff163373ffffffffffffffffffffffffffffffffffffffff161461110b576040517f08c379a00000000000000000000000000000000000000000000000000000000081526004018080602001828103825260288152602001806121666028913960400191505060405180910390fd5b565b600073ffffffffffffffffffffffffffffffffffffffff16600360009054906101000a900473ffffffffffffffffffffffffffffffffffffffff1673ffffffffffffffffffffffffffffffffffffffff16146111b4576040517f08c379a000000000000000000000000000000000000000000000000000000000815260040180806020018281038252602f8152602001806121d2602f913960400191505060405180910390fd5b80600360006101000a81548173ffffffffffffffffffffffffffffffffffffffff021916908373ffffffffffffffffffffffffffffffffffffffff16021790555050565b6000600160008473ffffffffffffffffffffffffffffffffffffffff1673ffffffffffffffffffffffffffffffffffffffff16815260200190815260200160002060008373ffffffffffffffffffffffffffffffffffffffff1673ffffffffffffffffffffffffffffffffffffffff16815260200190815260200160002054905092915050565b60008073ffffffffffffffffffffffffffffffffffffffff16600360009054906101000a900473ffffffffffffffffffffffffffffffffffffffff1673ffffffffffffffffffffffffffffffffffffffff161415611328576040517f08c379a000000000000000000000000000000000000000000000000000000000815260040180806020018281038252602c81526020018061213a602c913960400191505060405180910390fd5b61135c611333610a5a565b61134e670de0b6b3a764000085611bc390919063ffffffff16565b611c4990919063ffffffff16565b9050919050565b600073ffffffffffffffffffffffffffffffffffffffff16600360009054906101000a900473ffffffffffffffffffffffffffffffffffffffff1673ffffffffffffffffffffffffffffffffffffffff16141561140b576040517f08c379a000000000000000000000000000000000000000000000000000000000815260040180806020018281038252602c81526020018061213a602c913960400191505060405180910390fd5b61141433610a12565b81111561146c576040517f08c379a00000000000000000000000000000000000000000000000000000000081526004018080602001828103825260238152602001806122276023913960400191505060405180910390fd5b600061147782610908565b90506000611483610a5a565b905061148f3384611e4e565b600360009054906101000a900473ffffffffffffffffffffffffffffffffffffffff1673ffffffffffffffffffffffffffffffffffffffff16632e1a7d4d836040518263ffffffff1660e01b815260040180828152602001915050600060405180830381600087803b15801561150457600080fd5b505af1158015611518573d6000803e3d6000fd5b505050503373ffffffffffffffffffffffffffffffffffffffff166108fc839081150290604051600060405180830381858888f19350505050158015611562573d6000803e3d6000fd5b503373ffffffffffffffffffffffffffffffffffffffff167f846c37eef631e0943682d87352ec117c20008eb7f425c9b85ac011a6d4774cc083838660405180848152602001838152602001828152602001935050505060405180910390a2505050565b600033905090565b600073ffffffffffffffffffffffffffffffffffffffff168373ffffffffffffffffffffffffffffffffffffffff161415611654576040517f08c379a00000000000000000000000000000000000000000000000000000000081526004018080602001828103825260248152602001806122d96024913960400191505060405180910390fd5b600073ffffffffffffffffffffffffffffffffffffffff168273ffffffffffffffffffffffffffffffffffffffff1614156116da576040517f08c379a00000000000000000000000000000000000000000000000000000000081526004018080602001828103825260228152602001806121b06022913960400191505060405180910390fd5b80600160008573ffffffffffffffffffffffffffffffffffffffff1673ffffffffffffffffffffffffffffffffffffffff16815260200190815260200160002060008473ffffffffffffffffffffffffffffffffffffffff1673ffffffffffffffffffffffffffffffffffffffff168152602001908152602001600020819055508173ffffffffffffffffffffffffffffffffffffffff168373ffffffffffffffffffffffffffffffffffffffff167f8c5be1e5ebec7d5bd14f71427d1e84f3dd0314c0f7b2291e5b200ac8c7c3b925836040518082815260200191505060405180910390a3505050565b600073ffffffffffffffffffffffffffffffffffffffff168373ffffffffffffffffffffffffffffffffffffffff16141561184b576040517f08c379a00000000000000000000000000000000000000000000000000000000081526004018080602001828103825260258152602001806122b46025913960400191505060405180910390fd5b600073ffffffffffffffffffffffffffffffffffffffff168273ffffffffffffffffffffffffffffffffffffffff1614156118d1576040517f08c379a00000000000000000000000000000000000000000000000000000000081526004018080602001828103825260238152602001806121176023913960400191505060405180910390fd5b61193c81604051806060016040528060268152602001612201602691396000808773ffffffffffffffffffffffffffffffffffffffff1673ffffffffffffffffffffffffffffffffffffffff16815260200190815260200160002054611a7b9092919063ffffffff16565b6000808573ffffffffffffffffffffffffffffffffffffffff1673ffffffffffffffffffffffffffffffffffffffff168152602001908152602001600020819055506119cf816000808573ffffffffffffffffffffffffffffffffffffffff1673ffffffffffffffffffffffffffffffffffffffff16815260200190815260200160002054611b3b90919063ffffffff16565b6000808473ffffffffffffffffffffffffffffffffffffffff1673ffffffffffffffffffffffffffffffffffffffff168152602001908152602001600020819055508173ffffffffffffffffffffffffffffffffffffffff168373ffffffffffffffffffffffffffffffffffffffff167fddf252ad1be2c89b69c2b068fc378daa952ba7f163c4a11628f55a4df523b3ef836040518082815260200191505060405180910390a3505050565b6000838311158290611b28576040517f08c379a00000000000000000000000000000000000000000000000000000000081526004018080602001828103825283818151815260200191508051906020019080838360005b83811015611aed578082015181840152602081019050611ad2565b50505050905090810190601f168015611b1a5780820380516001836020036101000a031916815260200191505b509250505060405180910390fd5b5060008385039050809150509392505050565b600080828401905083811015611bb9576040517f08c379a000000000000000000000000000000000000000000000000000000000815260040180806020018281038252601b8152602001807f536166654d6174683a206164646974696f6e206f766572666c6f77000000000081525060200191505060405180910390fd5b8091505092915050565b600080831415611bd65760009050611c43565b6000828402905082848281611be757fe5b0414611c3e576040517f08c379a000000000000000000000000000000000000000000000000000000000815260040180806020018281038252602181526020018061224a6021913960400191505060405180910390fd5b809150505b92915050565b6000611c8b83836040518060400160405280601a81526020017f536166654d6174683a206469766973696f6e206279207a65726f000000000000815250612006565b905092915050565b600073ffffffffffffffffffffffffffffffffffffffff168273ffffffffffffffffffffffffffffffffffffffff161415611d36576040517f08c379a000000000000000000000000000000000000000000000000000000000815260040180806020018281038252601f8152602001807f45524332303a206d696e7420746f20746865207a65726f20616464726573730081525060200191505060405180910390fd5b611d4b81600254611b3b90919063ffffffff16565b600281905550611da2816000808573ffffffffffffffffffffffffffffffffffffffff1673ffffffffffffffffffffffffffffffffffffffff16815260200190815260200160002054611b3b90919063ffffffff16565b6000808473ffffffffffffffffffffffffffffffffffffffff1673ffffffffffffffffffffffffffffffffffffffff168152602001908152602001600020819055508173ffffffffffffffffffffffffffffffffffffffff16600073ffffffffffffffffffffffffffffffffffffffff167fddf252ad1be2c89b69c2b068fc378daa952ba7f163c4a11628f55a4df523b3ef836040518082815260200191505060405180910390a35050565b600073ffffffffffffffffffffffffffffffffffffffff168273ffffffffffffffffffffffffffffffffffffffff161415611ed4576040517f08c379a00000000000000000000000000000000000000000000000000000000081526004018080602001828103825260218152602001806122936021913960400191505060405180910390fd5b611f3f8160405180606001604052806022815260200161218e602291396000808673ffffffffffffffffffffffffffffffffffffffff1673ffffffffffffffffffffffffffffffffffffffff16815260200190815260200160002054611a7b9092919063ffffffff16565b6000808473ffffffffffffffffffffffffffffffffffffffff1673ffffffffffffffffffffffffffffffffffffffff16815260200190815260200160002081905550611f96816002546120cc90919063ffffffff16565b600281905550600073ffffffffffffffffffffffffffffffffffffffff168273ffffffffffffffffffffffffffffffffffffffff167fddf252ad1be2c89b69c2b068fc378daa952ba7f163c4a11628f55a4df523b3ef836040518082815260200191505060405180910390a35050565b600080831182906120b2576040517f08c379a00000000000000000000000000000000000000000000000000000000081526004018080602001828103825283818151815260200191508051906020019080838360005b8381101561207757808201518184015260208101905061205c565b50505050905090810190601f1680156120a45780820380516001836020036101000a031916815260200191505b509250505060405180910390fd5b5060008385816120be57fe5b049050809150509392505050565b600061210e83836040518060400160405280601e81526020017f536166654d6174683a207375627472616374696f6e206f766572666c6f770000815250611a7b565b90509291505056fe45524332303a207472616e7366657220746f20746865207a65726f206164647265737343616e206f6e6c7920626520657865637574656420776974682061206261636b696e6720636f6e747261637443616e206f6e6c79206265206578656375746564206279206261636b696e6720636f6e747261637445524332303a206275726e20616d6f756e7420657863656564732062616c616e636545524332303a20617070726f766520746f20746865207a65726f206164647265737343616e206f6e6c7920626520657865637574656420776974686f75742061206261636b696e6720636f6e747261637445524332303a207472616e7366657220616d6f756e7420657863656564732062616c616e636543616e206e6f7420646976657374206d6f7265207468616e20696e766573746d656e74536166654d6174683a206d756c7469706c69636174696f6e206f766572666c6f7745524332303a207472616e7366657220616d6f756e74206578636565647320616c6c6f77616e636545524332303a206275726e2066726f6d20746865207a65726f206164647265737345524332303a207472616e736665722066726f6d20746865207a65726f206164647265737345524332303a20617070726f76652066726f6d20746865207a65726f206164647265737345524332303a2064656372656173656420616c6c6f77616e63652062656c6f77207a65726fa265627a7a72315820b9f0280e5ed1cbe9a5f8226b7969dbe93a9d1fb4694c0d6018436bcc3436d3bc64736f6c63430005100032",
  "source": "pragma solidity ^0.5.0;\r\n\r\nimport \"./BackingContract.sol\";\r\nimport \"openzeppelin-solidity/contracts/token/ERC20/ERC20.sol\";\r\n\r\n/**\r\n * @title BackedToken\r\n * @author Rosco Kalis <roscokalis@gmail.com>\r\n */\r\ncontract BackedToken is ERC20 {\r\n    BackingContract public backingContract;\r\n\r\n    event Buy(address indexed buyer, uint256 ethAmount, uint256 tokenPrice, uint256 tokenAmount);\r\n    event Sell(address indexed seller, uint256 ethAmount, uint256 tokenPrice, uint256 tokenAmount);\r\n\r\n    modifier onlyWhenBacked() {\r\n        require(address(backingContract) != address(0), \"Can only be executed with a backing contract\");\r\n        _;\r\n    }\r\n\r\n    modifier onlyWhenNotBacked() {\r\n        require(address(backingContract) == address(0), \"Can only be executed without a backing contract\");\r\n        _;\r\n    }\r\n\r\n    modifier onlyBackingContract() {\r\n        require(msg.sender == address(backingContract), \"Can only be executed by backing contract\");\r\n        _;\r\n    }\r\n\r\n    /**\r\n     * @dev Fallback payable function forwarding funds to the backing contract.\r\n     */\r\n    function() external payable onlyWhenBacked {\r\n        backingContract.deposit.value(msg.value)();\r\n    }\r\n\r\n    /**\r\n     * @notice Payable function used by the backing contract to put funds back in the backed token contract.\r\n     */\r\n    function deposit() external payable onlyWhenBacked onlyBackingContract {}\r\n\r\n    /**\r\n     * @notice Backs this token using the passed backing contract address.\r\n     * @dev Only used in initialisation.\r\n     * @param backingContractAddress The address of a BackingContract that will back this token.\r\n     */\r\n    function back(address payable backingContractAddress) external onlyWhenNotBacked {\r\n        backingContract = BackingContract(backingContractAddress);\r\n    }\r\n\r\n    /**\r\n     * @notice Buys an amount of tokens.\r\n     * @dev Uses the conversion functions.\r\n     * @dev Emits Buy event.\r\n     */\r\n    function buy() external payable onlyWhenBacked {\r\n        require(msg.value > 0, \"A purchase should be made\");\r\n\r\n        uint256 tokenAmount = convertEthToToken(msg.value);\r\n        uint256 currentTokenPrice = tokenPrice();\r\n        _mint(msg.sender, tokenAmount);\r\n\r\n        backingContract.deposit.value(msg.value)();\r\n\r\n        emit Buy(msg.sender, msg.value, currentTokenPrice, tokenAmount);\r\n    }\r\n\r\n    /**\r\n     * @notice Sells an amount of tokens and withdraws the corresponding eth from the backing contract.\r\n     * @dev Uses the conversion functions.\r\n     * @dev Emits Sell event.\r\n     * @param tokenAmount The amount of tokens to sell.\r\n     */\r\n    function sell(uint256 tokenAmount) external onlyWhenBacked {\r\n        require(tokenAmount <= balanceOf(msg.sender), \"Can not divest more than investment\");\r\n\r\n        uint256 ethAmount = convertTokenToEth(tokenAmount);\r\n        uint256 currentTokenPrice = tokenPrice();\r\n        _burn(msg.sender, tokenAmount);\r\n\r\n        backingContract.withdraw(ethAmount);\r\n        msg.sender.transfer(ethAmount);\r\n\r\n        emit Sell(msg.sender, ethAmount, currentTokenPrice, tokenAmount);\r\n    }\r\n\r\n    /**\r\n     * @notice Returns the token price, which is derived from the backing contract's balance and total token supply.\r\n     * @return The token price.\r\n     */\r\n    function tokenPrice() public view onlyWhenBacked returns (uint256) {\r\n        if (totalSupply() == 0 || backingContract.balanceForBacking() == 0) {\r\n            return 1 ether;\r\n        }\r\n        return backingContract.balanceForBacking().mul(1 ether).div(totalSupply());\r\n    }\r\n\r\n    /**\r\n     * @notice Converts an amount of eth to an amount of tokens.\r\n     * @param ethAmount The amount of eth to convert.\r\n     */\r\n    function convertEthToToken(uint256 ethAmount) public view onlyWhenBacked returns (uint256) {\r\n        return ethAmount.mul(1 ether).div(tokenPrice());\r\n    }\r\n\r\n    /**\r\n     * @notice Converts an amount of tokens to an amount of eth.\r\n     * @param tokenAmount The amount of tokens to convert.\r\n     */\r\n    function convertTokenToEth(uint256 tokenAmount) public view onlyWhenBacked returns (uint256) {\r\n        return tokenPrice().mul(tokenAmount).div(1 ether);\r\n    }\r\n}\r\n",
  "sourcePath": "D:\\MyData\\mywork\\Tasks\\angular\\2022-2-19\\ethroulette\\contracts\\BackedToken.sol",
  "compiler": {
    "name": "solc",
    "version": "0.5.16+commit.9c3226ce.Emscripten.clang"
  },
  "schemaVersion": "3.4.5",
  "updatedAt": "2022-02-27T15:50:52.601Z",
  "devdoc": {
    "author": "Rosco Kalis <roscokalis@gmail.com>",
    "methods": {
      "allowance(address,address)": {
        "details": "See {IERC20-allowance}."
      },
      "approve(address,uint256)": {
        "details": "See {IERC20-approve}.     * Requirements:     * - `spender` cannot be the zero address."
      },
      "back(address)": {
        "details": "Only used in initialisation.",
        "params": {
          "backingContractAddress": "The address of a BackingContract that will back this token."
        }
      },
      "balanceOf(address)": {
        "details": "See {IERC20-balanceOf}."
      },
      "buy()": {
        "details": "Uses the conversion functions.Emits Buy event."
      },
      "convertEthToToken(uint256)": {
        "params": {
          "ethAmount": "The amount of eth to convert."
        }
      },
      "convertTokenToEth(uint256)": {
        "params": {
          "tokenAmount": "The amount of tokens to convert."
        }
      },
      "decreaseAllowance(address,uint256)": {
        "details": "Atomically decreases the allowance granted to `spender` by the caller.     * This is an alternative to {approve} that can be used as a mitigation for problems described in {IERC20-approve}.     * Emits an {Approval} event indicating the updated allowance.     * Requirements:     * - `spender` cannot be the zero address. - `spender` must have allowance for the caller of at least `subtractedValue`."
      },
      "increaseAllowance(address,uint256)": {
        "details": "Atomically increases the allowance granted to `spender` by the caller.     * This is an alternative to {approve} that can be used as a mitigation for problems described in {IERC20-approve}.     * Emits an {Approval} event indicating the updated allowance.     * Requirements:     * - `spender` cannot be the zero address."
      },
      "sell(uint256)": {
        "details": "Uses the conversion functions.Emits Sell event.",
        "params": {
          "tokenAmount": "The amount of tokens to sell."
        }
      },
      "tokenPrice()": {
        "return": "The token price."
      },
      "totalSupply()": {
        "details": "See {IERC20-totalSupply}."
      },
      "transfer(address,uint256)": {
        "details": "See {IERC20-transfer}.     * Requirements:     * - `recipient` cannot be the zero address. - the caller must have a balance of at least `amount`."
      },
      "transferFrom(address,address,uint256)": {
        "details": "See {IERC20-transferFrom}.     * Emits an {Approval} event indicating the updated allowance. This is not required by the EIP. See the note at the beginning of {ERC20};     * Requirements: - `sender` and `recipient` cannot be the zero address. - `sender` must have a balance of at least `amount`. - the caller must have allowance for `sender`'s tokens of at least `amount`."
      }
    },
    "title": "BackedToken"
  },
  "userdoc": {
    "methods": {
      "back(address)": {
        "notice": "Backs this token using the passed backing contract address."
      },
      "buy()": {
        "notice": "Buys an amount of tokens."
      },
      "convertEthToToken(uint256)": {
        "notice": "Converts an amount of eth to an amount of tokens."
      },
      "convertTokenToEth(uint256)": {
        "notice": "Converts an amount of tokens to an amount of eth."
      },
      "deposit()": {
        "notice": "Payable function used by the backing contract to put funds back in the backed token contract."
      },
      "sell(uint256)": {
        "notice": "Sells an amount of tokens and withdraws the corresponding eth from the backing contract."
      },
      "tokenPrice()": {
        "notice": "Returns the token price, which is derived from the backing contract's balance and total token supply."
      }
    }
  }
}